{
  "_format": "hh-sol-artifact-1",
  "contractName": "MSMCoin",
  "sourceName": "contracts/MSMCoin.sol",
  "abi": [
    {
      "inputs": [],
      "stateMutability": "nonpayable",
      "type": "constructor"
    },
    {
      "anonymous": false,
      "inputs": [
        {
          "indexed": true,
          "internalType": "address",
          "name": "owner",
          "type": "address"
        },
        {
          "indexed": true,
          "internalType": "address",
          "name": "spender",
          "type": "address"
        },
        {
          "indexed": false,
          "internalType": "uint256",
          "name": "value",
          "type": "uint256"
        }
      ],
      "name": "Approval",
      "type": "event"
    },
    {
      "anonymous": false,
      "inputs": [
        {
          "indexed": true,
          "internalType": "address",
          "name": "previousOwner",
          "type": "address"
        },
        {
          "indexed": true,
          "internalType": "address",
          "name": "newOwner",
          "type": "address"
        }
      ],
      "name": "OwnershipTransferred",
      "type": "event"
    },
    {
      "anonymous": false,
      "inputs": [
        {
          "indexed": true,
          "internalType": "address",
          "name": "from",
          "type": "address"
        },
        {
          "indexed": true,
          "internalType": "address",
          "name": "to",
          "type": "address"
        },
        {
          "indexed": false,
          "internalType": "uint256",
          "name": "value",
          "type": "uint256"
        }
      ],
      "name": "Transfer",
      "type": "event"
    },
    {
      "anonymous": false,
      "inputs": [
        {
          "indexed": true,
          "internalType": "address",
          "name": "owner",
          "type": "address"
        },
        {
          "indexed": false,
          "internalType": "uint256",
          "name": "amount",
          "type": "uint256"
        },
        {
          "indexed": false,
          "internalType": "string",
          "name": "message",
          "type": "string"
        }
      ],
      "name": "additionalTokensMinted",
      "type": "event"
    },
    {
      "anonymous": false,
      "inputs": [
        {
          "indexed": true,
          "internalType": "address",
          "name": "owner",
          "type": "address"
        },
        {
          "indexed": false,
          "internalType": "uint256",
          "name": "amount",
          "type": "uint256"
        }
      ],
      "name": "bonusTokensMinted",
      "type": "event"
    },
    {
      "anonymous": false,
      "inputs": [
        {
          "indexed": true,
          "internalType": "address",
          "name": "owner",
          "type": "address"
        },
        {
          "indexed": false,
          "internalType": "uint256",
          "name": "amount",
          "type": "uint256"
        },
        {
          "indexed": false,
          "internalType": "string",
          "name": "message",
          "type": "string"
        }
      ],
      "name": "tokensBurned",
      "type": "event"
    },
    {
      "anonymous": false,
      "inputs": [
        {
          "indexed": true,
          "internalType": "address",
          "name": "owner",
          "type": "address"
        },
        {
          "indexed": false,
          "internalType": "uint256",
          "name": "amount",
          "type": "uint256"
        },
        {
          "indexed": false,
          "internalType": "string",
          "name": "message",
          "type": "string"
        }
      ],
      "name": "tokensMinted",
      "type": "event"
    },
    {
      "inputs": [
        {
          "internalType": "address",
          "name": "owner",
          "type": "address"
        },
        {
          "internalType": "address",
          "name": "spender",
          "type": "address"
        }
      ],
      "name": "allowance",
      "outputs": [
        {
          "internalType": "uint256",
          "name": "",
          "type": "uint256"
        }
      ],
      "stateMutability": "view",
      "type": "function"
    },
    {
      "inputs": [
        {
          "internalType": "address",
          "name": "spender",
          "type": "address"
        },
        {
          "internalType": "uint256",
          "name": "amount",
          "type": "uint256"
        }
      ],
      "name": "approve",
      "outputs": [
        {
          "internalType": "bool",
          "name": "",
          "type": "bool"
        }
      ],
      "stateMutability": "nonpayable",
      "type": "function"
    },
    {
      "inputs": [
        {
          "internalType": "address",
          "name": "account",
          "type": "address"
        }
      ],
      "name": "balanceOf",
      "outputs": [
        {
          "internalType": "uint256",
          "name": "",
          "type": "uint256"
        }
      ],
      "stateMutability": "view",
      "type": "function"
    },
    {
      "inputs": [
        {
          "internalType": "address",
          "name": "account",
          "type": "address"
        }
      ],
      "name": "bonusTrackerOf",
      "outputs": [
        {
          "internalType": "uint256",
          "name": "",
          "type": "uint256"
        }
      ],
      "stateMutability": "view",
      "type": "function"
    },
    {
      "inputs": [
        {
          "internalType": "uint256",
          "name": "amount",
          "type": "uint256"
        }
      ],
      "name": "burn",
      "outputs": [],
      "stateMutability": "nonpayable",
      "type": "function"
    },
    {
      "inputs": [
        {
          "internalType": "address",
          "name": "account",
          "type": "address"
        },
        {
          "internalType": "uint256",
          "name": "amount",
          "type": "uint256"
        }
      ],
      "name": "burnFrom",
      "outputs": [],
      "stateMutability": "nonpayable",
      "type": "function"
    },
    {
      "inputs": [],
      "name": "decimals",
      "outputs": [
        {
          "internalType": "uint8",
          "name": "",
          "type": "uint8"
        }
      ],
      "stateMutability": "view",
      "type": "function"
    },
    {
      "inputs": [
        {
          "internalType": "address",
          "name": "spender",
          "type": "address"
        },
        {
          "internalType": "uint256",
          "name": "subtractedValue",
          "type": "uint256"
        }
      ],
      "name": "decreaseAllowance",
      "outputs": [
        {
          "internalType": "bool",
          "name": "",
          "type": "bool"
        }
      ],
      "stateMutability": "nonpayable",
      "type": "function"
    },
    {
      "inputs": [
        {
          "internalType": "address",
          "name": "spender",
          "type": "address"
        },
        {
          "internalType": "uint256",
          "name": "addedValue",
          "type": "uint256"
        }
      ],
      "name": "increaseAllowance",
      "outputs": [
        {
          "internalType": "bool",
          "name": "",
          "type": "bool"
        }
      ],
      "stateMutability": "nonpayable",
      "type": "function"
    },
    {
      "inputs": [
        {
          "internalType": "address",
          "name": "to",
          "type": "address"
        },
        {
          "internalType": "uint256",
          "name": "amount",
          "type": "uint256"
        }
      ],
      "name": "mint",
      "outputs": [],
      "stateMutability": "nonpayable",
      "type": "function"
    },
    {
      "inputs": [],
      "name": "name",
      "outputs": [
        {
          "internalType": "string",
          "name": "",
          "type": "string"
        }
      ],
      "stateMutability": "view",
      "type": "function"
    },
    {
      "inputs": [],
      "name": "owner",
      "outputs": [
        {
          "internalType": "address",
          "name": "",
          "type": "address"
        }
      ],
      "stateMutability": "view",
      "type": "function"
    },
    {
      "inputs": [],
      "name": "renounceOwnership",
      "outputs": [],
      "stateMutability": "nonpayable",
      "type": "function"
    },
    {
      "inputs": [],
      "name": "symbol",
      "outputs": [
        {
          "internalType": "string",
          "name": "",
          "type": "string"
        }
      ],
      "stateMutability": "view",
      "type": "function"
    },
    {
      "inputs": [],
      "name": "totalSupply",
      "outputs": [
        {
          "internalType": "uint256",
          "name": "",
          "type": "uint256"
        }
      ],
      "stateMutability": "view",
      "type": "function"
    },
    {
      "inputs": [
        {
          "internalType": "address",
          "name": "to",
          "type": "address"
        },
        {
          "internalType": "uint256",
          "name": "amount",
          "type": "uint256"
        }
      ],
      "name": "transfer",
      "outputs": [
        {
          "internalType": "bool",
          "name": "",
          "type": "bool"
        }
      ],
      "stateMutability": "nonpayable",
      "type": "function"
    },
    {
      "inputs": [
        {
          "internalType": "address",
          "name": "from",
          "type": "address"
        },
        {
          "internalType": "address",
          "name": "to",
          "type": "address"
        },
        {
          "internalType": "uint256",
          "name": "amount",
          "type": "uint256"
        }
      ],
      "name": "transferFrom",
      "outputs": [
        {
          "internalType": "bool",
          "name": "",
          "type": "bool"
        }
      ],
      "stateMutability": "nonpayable",
      "type": "function"
    },
    {
      "inputs": [
        {
          "internalType": "address",
          "name": "newOwner",
          "type": "address"
        }
      ],
      "name": "transferOwnership",
      "outputs": [],
      "stateMutability": "nonpayable",
      "type": "function"
    }
  ],
  "bytecode": "0x60806040523480156200001157600080fd5b506040518060400160405280600781526020017f4d534d436f696e000000000000000000000000000000000000000000000000008152506040518060400160405280600381526020017f4d534d00000000000000000000000000000000000000000000000000000000008152508160039080519060200190620000969291906200039d565b508060049080519060200190620000af9291906200039d565b505050620000d2620000c66200014c60201b60201c565b6200015460201b60201c565b620000ed33683635c9adc5dea000006200021a60201b60201c565b3373ffffffffffffffffffffffffffffffffffffffff167f8d54cf4376f9d10619fbb6aded215dcdffc1b80415e0750f5064018278632d07683635c9adc5dea000006040516200013e9190620004bd565b60405180910390a2620006a0565b600033905090565b6000600560009054906101000a900473ffffffffffffffffffffffffffffffffffffffff16905081600560006101000a81548173ffffffffffffffffffffffffffffffffffffffff021916908373ffffffffffffffffffffffffffffffffffffffff1602179055508173ffffffffffffffffffffffffffffffffffffffff168173ffffffffffffffffffffffffffffffffffffffff167f8be0079c531659141344cd1fd0a4f28419497f9722a3daafe3b4186f6b6457e060405160405180910390a35050565b600073ffffffffffffffffffffffffffffffffffffffff168273ffffffffffffffffffffffffffffffffffffffff1614156200028d576040517f08c379a00000000000000000000000000000000000000000000000000000000081526004016200028490620004ef565b60405180910390fd5b620002a1600083836200039360201b60201c565b8060026000828254620002b591906200053f565b92505081905550806000808473ffffffffffffffffffffffffffffffffffffffff1673ffffffffffffffffffffffffffffffffffffffff16815260200190815260200160002060008282546200030c91906200053f565b925050819055508173ffffffffffffffffffffffffffffffffffffffff16600073ffffffffffffffffffffffffffffffffffffffff167fddf252ad1be2c89b69c2b068fc378daa952ba7f163c4a11628f55a4df523b3ef8360405162000373919062000511565b60405180910390a36200038f600083836200039860201b60201c565b5050565b505050565b505050565b828054620003ab90620005ba565b90600052602060002090601f016020900481019282620003cf57600085556200041b565b82601f10620003ea57805160ff19168380011785556200041b565b828001600101855582156200041b579182015b828111156200041a578251825591602001919060010190620003fd565b5b5090506200042a91906200042e565b5090565b5b80821115620004495760008160009055506001016200042f565b5090565b6200045881620005a6565b82525050565b60006200046d6020836200052e565b91506200047a826200064e565b602082019050919050565b600062000494601f836200052e565b9150620004a18262000677565b602082019050919050565b620004b7816200059c565b82525050565b6000604082019050620004d460008301846200044d565b8181036020830152620004e7816200045e565b905092915050565b600060208201905081810360008301526200050a8162000485565b9050919050565b6000602082019050620005286000830184620004ac565b92915050565b600082825260208201905092915050565b60006200054c826200059c565b915062000559836200059c565b9250827fffffffffffffffffffffffffffffffffffffffffffffffffffffffffffffffff03821115620005915762000590620005f0565b5b828201905092915050565b6000819050919050565b6000620005b3826200059c565b9050919050565b60006002820490506001821680620005d357607f821691505b60208210811415620005ea57620005e96200061f565b5b50919050565b7f4e487b7100000000000000000000000000000000000000000000000000000000600052601160045260246000fd5b7f4e487b7100000000000000000000000000000000000000000000000000000000600052602260045260246000fd5b7f496e697469616c20737570706c79206f6620746f6b656e73206d696e7465642e600082015250565b7f45524332303a206d696e7420746f20746865207a65726f206164647265737300600082015250565b61228a80620006b06000396000f3fe608060405234801561001057600080fd5b50600436106101165760003560e01c8063715018a6116100a257806395d89b411161007157806395d89b41146102e1578063a457c2d7146102ff578063a9059cbb1461032f578063dd62ed3e1461035f578063f2fde38b1461038f57610116565b8063715018a61461026d57806379cc67901461027757806383481ef5146102935780638da5cb5b146102c357610116565b8063313ce567116100e9578063313ce567146101b757806339509351146101d557806340c10f191461020557806342966c681461022157806370a082311461023d57610116565b806306fdde031461011b578063095ea7b31461013957806318160ddd1461016957806323b872dd14610187575b600080fd5b6101236103ab565b6040516101309190611a20565b60405180910390f35b610153600480360381019061014e9190611703565b61043d565b6040516101609190611a05565b60405180910390f35b610171610460565b60405161017e9190611be2565b60405180910390f35b6101a1600480360381019061019c91906116b4565b61046a565b6040516101ae9190611a05565b60405180910390f35b6101bf610499565b6040516101cc9190611c59565b60405180910390f35b6101ef60048036038101906101ea9190611703565b6104a2565b6040516101fc9190611a05565b60405180910390f35b61021f600480360381019061021a9190611703565b61054c565b005b61023b6004803603810190610236919061173f565b610624565b005b6102576004803603810190610252919061164f565b6106fb565b6040516102649190611be2565b60405180910390f35b610275610743565b005b610291600480360381019061028c9190611703565b6107cb565b005b6102ad60048036038101906102a8919061164f565b6107eb565b6040516102ba9190611be2565b60405180910390f35b6102cb610834565b6040516102d891906119ea565b60405180910390f35b6102e961085e565b6040516102f69190611a20565b60405180910390f35b61031960048036038101906103149190611703565b6108f0565b6040516103269190611a05565b60405180910390f35b61034960048036038101906103449190611703565b6109da565b6040516103569190611a05565b60405180910390f35b61037960048036038101906103749190611678565b610a00565b6040516103869190611be2565b60405180910390f35b6103a960048036038101906103a4919061164f565b610a87565b005b6060600380546103ba90611da2565b80601f01602080910402602001604051908101604052809291908181526020018280546103e690611da2565b80156104335780601f1061040857610100808354040283529160200191610433565b820191906000526020600020905b81548152906001019060200180831161041657829003601f168201915b5050505050905090565b600080610448610b7f565b9050610455818585610b87565b600191505092915050565b6000600254905090565b600080610475610b7f565b9050610482858285610d52565b61048d858585610dde565b60019150509392505050565b60006012905090565b6000806104ad610b7f565b9050610541818585600160008673ffffffffffffffffffffffffffffffffffffffff1673ffffffffffffffffffffffffffffffffffffffff16815260200190815260200160002060008973ffffffffffffffffffffffffffffffffffffffff1673ffffffffffffffffffffffffffffffffffffffff1681526020019081526020016000205461053c9190611c90565b610b87565b600191505092915050565b610554610b7f565b73ffffffffffffffffffffffffffffffffffffffff16610572610834565b73ffffffffffffffffffffffffffffffffffffffff16146105c8576040517f08c379a00000000000000000000000000000000000000000000000000000000081526004016105bf90611b22565b60405180910390fd5b6105d2828261105f565b3373ffffffffffffffffffffffffffffffffffffffff167fc31b604bce0888a4f5e36e76eee33516a5fff7a5d58ac7dcead8174c323eebf2826040516106189190611c2b565b60405180910390a25050565b61062c610b7f565b73ffffffffffffffffffffffffffffffffffffffff1661064a610834565b73ffffffffffffffffffffffffffffffffffffffff16146106a0576040517f08c379a000000000000000000000000000000000000000000000000000000000815260040161069790611b22565b60405180910390fd5b6106aa33826111bf565b3373ffffffffffffffffffffffffffffffffffffffff167fcde716650b13ae41f235d679e62500d67355bc41802e6cfc087b67a7850d975f826040516106f09190611bfd565b60405180910390a250565b60008060008373ffffffffffffffffffffffffffffffffffffffff1673ffffffffffffffffffffffffffffffffffffffff168152602001908152602001600020549050919050565b61074b610b7f565b73ffffffffffffffffffffffffffffffffffffffff16610769610834565b73ffffffffffffffffffffffffffffffffffffffff16146107bf576040517f08c379a00000000000000000000000000000000000000000000000000000000081526004016107b690611b22565b60405180910390fd5b6107c96000611396565b565b6107dd826107d7610b7f565b83610d52565b6107e782826111bf565b5050565b6000600660008373ffffffffffffffffffffffffffffffffffffffff1673ffffffffffffffffffffffffffffffffffffffff168152602001908152602001600020549050919050565b6000600560009054906101000a900473ffffffffffffffffffffffffffffffffffffffff16905090565b60606004805461086d90611da2565b80601f016020809104026020016040519081016040528092919081815260200182805461089990611da2565b80156108e65780601f106108bb576101008083540402835291602001916108e6565b820191906000526020600020905b8154815290600101906020018083116108c957829003601f168201915b5050505050905090565b6000806108fb610b7f565b90506000600160008373ffffffffffffffffffffffffffffffffffffffff1673ffffffffffffffffffffffffffffffffffffffff16815260200190815260200160002060008673ffffffffffffffffffffffffffffffffffffffff1673ffffffffffffffffffffffffffffffffffffffff168152602001908152602001600020549050838110156109c1576040517f08c379a00000000000000000000000000000000000000000000000000000000081526004016109b890611ba2565b60405180910390fd5b6109ce8286868403610b87565b60019250505092915050565b6000803390506109eb818585610dde565b6109f5818461145c565b600191505092915050565b6000600160008473ffffffffffffffffffffffffffffffffffffffff1673ffffffffffffffffffffffffffffffffffffffff16815260200190815260200160002060008373ffffffffffffffffffffffffffffffffffffffff1673ffffffffffffffffffffffffffffffffffffffff16815260200190815260200160002054905092915050565b610a8f610b7f565b73ffffffffffffffffffffffffffffffffffffffff16610aad610834565b73ffffffffffffffffffffffffffffffffffffffff1614610b03576040517f08c379a0000000000000000000000000000000000000000000000000000000008152600401610afa90611b22565b60405180910390fd5b600073ffffffffffffffffffffffffffffffffffffffff168173ffffffffffffffffffffffffffffffffffffffff161415610b73576040517f08c379a0000000000000000000000000000000000000000000000000000000008152600401610b6a90611a82565b60405180910390fd5b610b7c81611396565b50565b600033905090565b600073ffffffffffffffffffffffffffffffffffffffff168373ffffffffffffffffffffffffffffffffffffffff161415610bf7576040517f08c379a0000000000000000000000000000000000000000000000000000000008152600401610bee90611b82565b60405180910390fd5b600073ffffffffffffffffffffffffffffffffffffffff168273ffffffffffffffffffffffffffffffffffffffff161415610c67576040517f08c379a0000000000000000000000000000000000000000000000000000000008152600401610c5e90611aa2565b60405180910390fd5b80600160008573ffffffffffffffffffffffffffffffffffffffff1673ffffffffffffffffffffffffffffffffffffffff16815260200190815260200160002060008473ffffffffffffffffffffffffffffffffffffffff1673ffffffffffffffffffffffffffffffffffffffff168152602001908152602001600020819055508173ffffffffffffffffffffffffffffffffffffffff168373ffffffffffffffffffffffffffffffffffffffff167f8c5be1e5ebec7d5bd14f71427d1e84f3dd0314c0f7b2291e5b200ac8c7c3b92583604051610d459190611be2565b60405180910390a3505050565b6000610d5e8484610a00565b90507fffffffffffffffffffffffffffffffffffffffffffffffffffffffffffffffff8114610dd85781811015610dca576040517f08c379a0000000000000000000000000000000000000000000000000000000008152600401610dc190611ac2565b60405180910390fd5b610dd78484848403610b87565b5b50505050565b600073ffffffffffffffffffffffffffffffffffffffff168373ffffffffffffffffffffffffffffffffffffffff161415610e4e576040517f08c379a0000000000000000000000000000000000000000000000000000000008152600401610e4590611b62565b60405180910390fd5b600073ffffffffffffffffffffffffffffffffffffffff168273ffffffffffffffffffffffffffffffffffffffff161415610ebe576040517f08c379a0000000000000000000000000000000000000000000000000000000008152600401610eb590611a42565b60405180910390fd5b610ec983838361161b565b60008060008573ffffffffffffffffffffffffffffffffffffffff1673ffffffffffffffffffffffffffffffffffffffff16815260200190815260200160002054905081811015610f4f576040517f08c379a0000000000000000000000000000000000000000000000000000000008152600401610f4690611ae2565b60405180910390fd5b8181036000808673ffffffffffffffffffffffffffffffffffffffff1673ffffffffffffffffffffffffffffffffffffffff16815260200190815260200160002081905550816000808573ffffffffffffffffffffffffffffffffffffffff1673ffffffffffffffffffffffffffffffffffffffff1681526020019081526020016000206000828254610fe29190611c90565b925050819055508273ffffffffffffffffffffffffffffffffffffffff168473ffffffffffffffffffffffffffffffffffffffff167fddf252ad1be2c89b69c2b068fc378daa952ba7f163c4a11628f55a4df523b3ef846040516110469190611be2565b60405180910390a3611059848484611620565b50505050565b600073ffffffffffffffffffffffffffffffffffffffff168273ffffffffffffffffffffffffffffffffffffffff1614156110cf576040517f08c379a00000000000000000000000000000000000000000000000000000000081526004016110c690611bc2565b60405180910390fd5b6110db6000838361161b565b80600260008282546110ed9190611c90565b92505081905550806000808473ffffffffffffffffffffffffffffffffffffffff1673ffffffffffffffffffffffffffffffffffffffff16815260200190815260200160002060008282546111429190611c90565b925050819055508173ffffffffffffffffffffffffffffffffffffffff16600073ffffffffffffffffffffffffffffffffffffffff167fddf252ad1be2c89b69c2b068fc378daa952ba7f163c4a11628f55a4df523b3ef836040516111a79190611be2565b60405180910390a36111bb60008383611620565b5050565b600073ffffffffffffffffffffffffffffffffffffffff168273ffffffffffffffffffffffffffffffffffffffff16141561122f576040517f08c379a000000000000000000000000000000000000000000000000000000000815260040161122690611b42565b60405180910390fd5b61123b8260008361161b565b60008060008473ffffffffffffffffffffffffffffffffffffffff1673ffffffffffffffffffffffffffffffffffffffff168152602001908152602001600020549050818110156112c1576040517f08c379a00000000000000000000000000000000000000000000000000000000081526004016112b890611a62565b60405180910390fd5b8181036000808573ffffffffffffffffffffffffffffffffffffffff1673ffffffffffffffffffffffffffffffffffffffff1681526020019081526020016000208190555081600260008282546113189190611ce6565b92505081905550600073ffffffffffffffffffffffffffffffffffffffff168373ffffffffffffffffffffffffffffffffffffffff167fddf252ad1be2c89b69c2b068fc378daa952ba7f163c4a11628f55a4df523b3ef8460405161137d9190611be2565b60405180910390a361139183600084611620565b505050565b6000600560009054906101000a900473ffffffffffffffffffffffffffffffffffffffff16905081600560006101000a81548173ffffffffffffffffffffffffffffffffffffffff021916908373ffffffffffffffffffffffffffffffffffffffff1602179055508173ffffffffffffffffffffffffffffffffffffffff168173ffffffffffffffffffffffffffffffffffffffff167f8be0079c531659141344cd1fd0a4f28419497f9722a3daafe3b4186f6b6457e060405160405180910390a35050565b600073ffffffffffffffffffffffffffffffffffffffff168273ffffffffffffffffffffffffffffffffffffffff1614156114cc576040517f08c379a00000000000000000000000000000000000000000000000000000000081526004016114c390611b02565b60405180910390fd5b80600660008473ffffffffffffffffffffffffffffffffffffffff1673ffffffffffffffffffffffffffffffffffffffff168152602001908152602001600020600082825461151b9190611c90565b92505081905550678ac7230489e80000600660008473ffffffffffffffffffffffffffffffffffffffff1673ffffffffffffffffffffffffffffffffffffffff168152602001908152602001600020541115611617576000600660008473ffffffffffffffffffffffffffffffffffffffff1673ffffffffffffffffffffffffffffffffffffffff168152602001908152602001600020819055506115c8826706f05b59d3b2000061105f565b3373ffffffffffffffffffffffffffffffffffffffff167f8c0a5cece32eaf7487a24fd4046614b981dc4ed8b26a5f05fa3faf7d8c6e3cd78260405161160e9190611be2565b60405180910390a25b5050565b505050565b505050565b60008135905061163481612226565b92915050565b6000813590506116498161223d565b92915050565b60006020828403121561166157600080fd5b600061166f84828501611625565b91505092915050565b6000806040838503121561168b57600080fd5b600061169985828601611625565b92505060206116aa85828601611625565b9150509250929050565b6000806000606084860312156116c957600080fd5b60006116d786828701611625565b93505060206116e886828701611625565b92505060406116f98682870161163a565b9150509250925092565b6000806040838503121561171657600080fd5b600061172485828601611625565b92505060206117358582860161163a565b9150509250929050565b60006020828403121561175157600080fd5b600061175f8482850161163a565b91505092915050565b61177181611d1a565b82525050565b61178081611d2c565b82525050565b600061179182611c74565b61179b8185611c7f565b93506117ab818560208601611d6f565b6117b481611e32565b840191505092915050565b60006117cc602383611c7f565b91506117d782611e43565b604082019050919050565b60006117ef602283611c7f565b91506117fa82611e92565b604082019050919050565b6000611812602683611c7f565b915061181d82611ee1565b604082019050919050565b6000611835602283611c7f565b915061184082611f30565b604082019050919050565b6000611858601d83611c7f565b915061186382611f7f565b602082019050919050565b600061187b602683611c7f565b915061188682611fa8565b604082019050919050565b600061189e600e83611c7f565b91506118a982611ff7565b602082019050919050565b60006118c1602583611c7f565b91506118cc82612020565b604082019050919050565b60006118e4602083611c7f565b91506118ef8261206f565b602082019050919050565b6000611907602183611c7f565b915061191282612098565b604082019050919050565b600061192a601983611c7f565b9150611935826120e7565b602082019050919050565b600061194d602583611c7f565b915061195882612110565b604082019050919050565b6000611970602483611c7f565b915061197b8261215f565b604082019050919050565b6000611993602583611c7f565b915061199e826121ae565b604082019050919050565b60006119b6601f83611c7f565b91506119c1826121fd565b602082019050919050565b6119d581611d58565b82525050565b6119e481611d62565b82525050565b60006020820190506119ff6000830184611768565b92915050565b6000602082019050611a1a6000830184611777565b92915050565b60006020820190508181036000830152611a3a8184611786565b905092915050565b60006020820190508181036000830152611a5b816117bf565b9050919050565b60006020820190508181036000830152611a7b816117e2565b9050919050565b60006020820190508181036000830152611a9b81611805565b9050919050565b60006020820190508181036000830152611abb81611828565b9050919050565b60006020820190508181036000830152611adb8161184b565b9050919050565b60006020820190508181036000830152611afb8161186e565b9050919050565b60006020820190508181036000830152611b1b816118b4565b9050919050565b60006020820190508181036000830152611b3b816118d7565b9050919050565b60006020820190508181036000830152611b5b816118fa565b9050919050565b60006020820190508181036000830152611b7b81611940565b9050919050565b60006020820190508181036000830152611b9b81611963565b9050919050565b60006020820190508181036000830152611bbb81611986565b9050919050565b60006020820190508181036000830152611bdb816119a9565b9050919050565b6000602082019050611bf760008301846119cc565b92915050565b6000604082019050611c1260008301846119cc565b8181036020830152611c2381611891565b905092915050565b6000604082019050611c4060008301846119cc565b8181036020830152611c518161191d565b905092915050565b6000602082019050611c6e60008301846119db565b92915050565b600081519050919050565b600082825260208201905092915050565b6000611c9b82611d58565b9150611ca683611d58565b9250827fffffffffffffffffffffffffffffffffffffffffffffffffffffffffffffffff03821115611cdb57611cda611dd4565b5b828201905092915050565b6000611cf182611d58565b9150611cfc83611d58565b925082821015611d0f57611d0e611dd4565b5b828203905092915050565b6000611d2582611d38565b9050919050565b60008115159050919050565b600073ffffffffffffffffffffffffffffffffffffffff82169050919050565b6000819050919050565b600060ff82169050919050565b60005b83811015611d8d578082015181840152602081019050611d72565b83811115611d9c576000848401525b50505050565b60006002820490506001821680611dba57607f821691505b60208210811415611dce57611dcd611e03565b5b50919050565b7f4e487b7100000000000000000000000000000000000000000000000000000000600052601160045260246000fd5b7f4e487b7100000000000000000000000000000000000000000000000000000000600052602260045260246000fd5b6000601f19601f8301169050919050565b7f45524332303a207472616e7366657220746f20746865207a65726f206164647260008201527f6573730000000000000000000000000000000000000000000000000000000000602082015250565b7f45524332303a206275726e20616d6f756e7420657863656564732062616c616e60008201527f6365000000000000000000000000000000000000000000000000000000000000602082015250565b7f4f776e61626c653a206e6577206f776e657220697320746865207a65726f206160008201527f6464726573730000000000000000000000000000000000000000000000000000602082015250565b7f45524332303a20617070726f766520746f20746865207a65726f20616464726560008201527f7373000000000000000000000000000000000000000000000000000000000000602082015250565b7f45524332303a20696e73756666696369656e7420616c6c6f77616e6365000000600082015250565b7f45524332303a207472616e7366657220616d6f756e742065786365656473206260008201527f616c616e63650000000000000000000000000000000000000000000000000000602082015250565b7f546f6b656e73206275726e65642e000000000000000000000000000000000000600082015250565b7f4d534d436f696e3a207472616e7366657220746f20746865207a65726f20616460008201527f6472657373000000000000000000000000000000000000000000000000000000602082015250565b7f4f776e61626c653a2063616c6c6572206973206e6f7420746865206f776e6572600082015250565b7f45524332303a206275726e2066726f6d20746865207a65726f2061646472657360008201527f7300000000000000000000000000000000000000000000000000000000000000602082015250565b7f4164646974696f6e616c20746f6b656e73206d696e7465642e00000000000000600082015250565b7f45524332303a207472616e736665722066726f6d20746865207a65726f20616460008201527f6472657373000000000000000000000000000000000000000000000000000000602082015250565b7f45524332303a20617070726f76652066726f6d20746865207a65726f2061646460008201527f7265737300000000000000000000000000000000000000000000000000000000602082015250565b7f45524332303a2064656372656173656420616c6c6f77616e63652062656c6f7760008201527f207a65726f000000000000000000000000000000000000000000000000000000602082015250565b7f45524332303a206d696e7420746f20746865207a65726f206164647265737300600082015250565b61222f81611d1a565b811461223a57600080fd5b50565b61224681611d58565b811461225157600080fd5b5056fea2646970667358221220e237707a98dece8b6f8a9a74d9bf66a3c6faf9fb85f3f6eb0497dd7947f1679e64736f6c63430008040033",
  "linkReferences": {},
  "deployedLinkReferences": {}
}